:020000040800F2
:10000000802A0120DDC70A08B9C70A08BBC70A0849
:10001000BDC70A08BFC70A08C1C70A080000000018
:10002000000000000000000000000000C3C70A0834
:10003000C5C70A0800000000C7C70A08C9C70A08E0
:1000400001C80A0805C80A0809C80A080DC80A082C
:1000500011C80A0815C80A0819C80A081DC80A08DC
:1000600021C80A0825C80A0829C80A082DC80A088C
:1000700031C80A0835C80A0839C80A083DC80A083C
:1000800041C80A0845C80A0849C80A084DC80A08EC
:1000900051C80A0855C80A0859C80A085DC80A089C
:1000A00061C80A0865C80A0869C80A086DC80A084C
:1000B00071C80A0875C80A0879C80A087DC80A08FC
:1000C00081C80A0885C80A0889C80A088DC80A08AC
:1000D00091C80A0895C80A0899C80A0853B60A08B8
:1000E0009DC80A08A1C80A08A5C80A08A9C80A081C
:1000F000ADC80A08B1C80A08B5C80A08B9C80A08CC
:10010000BDC80A08C1C80A08C5C80A08C9C80A087B
:10011000CDC80A087DB70A08D1C80A08D5C80A0898
:10012000D9C80A08DDC80A08E1C80A08E5C80A08EB
:10013000E9C80A08EDC80A08F1C80A08F5C80A089B
:10014000F9C80A08FDC80A0801C90A0805C90A0849
:1001500009C90A080DC90A0811C90A0815C90A08F7
:1001600019C90A081DC90A0821C90A0825C90A08A7
:1001700029C90A082DC90A0831C90A080000000067
:1001800035C90A0839C90A08CFC950BD9FBBD5BDBA
:1001900060CA81BD835EAA3AE703B6BD2A7B7C3D77
:1001A000EE34D2BDFC3A203D3F9780BCE247343D5F
:1001B00097FF39BC6CC700BD55F17E3DDDCBC5BD99
:1001C000AD96A0BDA71DC4BD16A0C9BC1C1589391C
:1001D0003022A8BDBB6129BD1D5AB33C72BF263D6C
:1001E000C86900BEBF5D373DB6714F3C36D2C1BC59
:1001F0004EAED3BB6E2ADABD051CA03C89E3EF3DB1
:10020000549316BE1042B4BDA18DF13C21CCC7BDA4
:10021000204CE63C8A7CD2BCF4A2B33AEF4735BC12
:10022000B3AD0CBDDEAF73BB2CE0C33C20F5AB3CE3
:10023000CBAF24BD62322B3C3F12453D495EAD3D04
:10024000798FC6BD6548BEBDDAA089BD6DEDF7BD2D
:1002500081252A3D94D4583DAA01D1BD8C7571BD2C
:10026000BAC346BDB158AABD8DC868BD15A9E7BCC3
:100270003A7FB2BDA28F9F3DD04A833D16037EBD1B
:100280003413CCBD96A86B3D1C858BBCFDB4A73D3B
:10029000EE113CBDAA9385BDC313BFBD48CF3C3909
:1002A0009C35D23CC48EF33CBFBB2ABDB1C61EBD3B
:1002B0008C4AC3B816D8223B9054403D08FA983C6B
:1002C000504ABD3B9ED784BD918E3FBD30ED103C62
:1002D0000F8EC63DC5DEC3BD23FD31BD6B72153D1E
:1002E000C54687BB26FCC1BB731EABBD8CEA81BD76
:1002F000A59B7CBDB0C78C3BD692053D249508BD1F
:100300003F7681BD3D758A3CC44803BEF1EE833D16
:1003100012152A3B061CE1396A69D83C8B334B3DE8
:100320006C9AACBDEA26BEBD12A0D7BD373F8DBDCD
:10033000F8BD943D859C8DBDDF5CD63B413B98BDAF
:100340002591A5BDEB4A963DE0E503BDA416A9BCE9
:10035000D60DE7BCD756E93C754FF63B3FBBD23CC8
:100360004785B0BBCF8681BD027CB2BD647D6CBDCC
:10037000662A24BDD015F9BB692F0FBD0935953B01
:10038000461ECFBC4B82B43C5D98BDBD7E36BFBD22
:10039000524B7BBD258DC33DEDFEDABDF87BB1BD73
:1003A0003E44813D5231E63C5637CFBDC389AC3D1A
:1003B0008A5DA43D5932EDBD8E1381BC1ABC2BBDA4
:1003C0002B06573CC52DAFBC972F383D9C937BBD6A
:1003D000046EC4BDF0DE363D9074853D1B3AB6BD5B
:1003E000AC1BC03D2274BFBD4FA3CABC4A59BC3A26
:1003F00075E63A3D27B593BD8F45F0BD6DED87BBE2
:1004000078F5FBBB5351733DBA16193D55016ABDD2
:10041000CF2081BDBA06623C417B563D46F383BD89
:100420007BDA88BD5F0C30BDAE68B73C2927533DF1
:10043000DC9972BD67E515BDAA7CE0BD1DABD43C5F
:100440004CCC0E3D5A96B33C56AAAEBC898B01BE2D
:10045000C69E883CA1302D3DBFB8B4BC50A9F43B2A
:100460000E9BA7BC49BB0F3C06F9BEBDE00EB3BC5A
:10047000D80FA53D1CBCF3BB4E30E03C0E5894BCDD
:10048000CD6E9A3C0256973C4801DC3C17462A3D0B
:10049000CD33EDBD11B431BA87BF5BBDD5884CBB40
:1004A000EEEE2A3BDAFB88BCE5B421BD70033FBD0C
:1004B0003E852F3D4324953C6E770F3CBEECE8BD56
:1004C000A91704BEE1030A3D55EA86BC49E30F3B88
:1004D0003D1ACF3C5F29B9BDB043B1BB6A57AFBD30
:1004E00033458ABDB454A3BC883E17BE7123D5BD25
:1004F0006C30DB3DD68AC8BDE94143BD1C4973BDA4
:1005000050A38DBC10FE42BC3A19B3BD8DDF99BC1F
:100510003CA885BD2AFB6F3D68FE98BDCFC1423B1C
:10052000D81E64BD33A74F3D7F6349BD62B78B3D85
:10053000FCEEBDBDAAE0143DB5E7B4BD2EBEC93D7D
:100540001A47FEBB6D58A9BDA6427DBDA65E2EBD55
:10055000786BE83CCA4AFE3B21EEA4BD8966C63DE5
:100560002B44DABD7D7CE63BBA2603BE081AB5BA39
:10057000B1C81ABD0C16073DF5514CBDCCE5F6BC13
:1005800070F75EBCC41280BCE995B3BDCF248DBDAD
:10059000BE90CFBD9FED5BBD3DF9B4BCCF05CABDDC
:1005A00020AD9D3CABA2563D9CE0A23D64A7C5BBDF
:1005B000C4B6763B13E7D8BD87FEFF3C060CC33BB1
:1005C000F46A23BD729B72BD4AF0A3BD2D0A9F3B06
:1005D00069C72FBD5332483D0176B2BDD6BE5CBD62
:1005E000146048BD7666553DD7F73F3D4BD320BDDF
:1005F0001F182ABD4FD2B63C53851C3D6CF21B3CE4
:10060000A6CAABBDA28970BD84AE0DBDFDE4DA3BC8
:100610003645C1BD1E2FA33D6424363DEA6D9E3D87
:10062000F06C1ABE223190BDC0408C3D6848E2BDDE
:10063000A1C77EBD3691FE3C6E1B35BD8C0691BCBC
:10064000F26C9BBD5004ADBC3049FFBC05591D3D4B
:10065000B450093D9B808BBD05CBE2BDDC6124BC61
:10066000EC33B93CE372A53CCA9DA23CAACB923DB7
:10067000CD0116BE8EFB033C816340BDD234873B67
:10068000F630653C3452AF3BC04074BD9417A83D72
:1006900049238EBCD97E62BD618C85BDA7AB41BCB0
:1006A00011CAC63CEE8AE0BCEDC3EC3BA599AD3C5B
:1006B00092100D3C2F1854BCA4CAA5BC2DCA0BBE69
:1006C00071B10F3DF49EB33C953CCB3CDBC999BD69
:1006D0000CE92D3CAE52E3BCCC73383CBCA78E3C3D
:1006E0005DB3DFBD62F7713D4A5BA4BCF2BB723DF6
:1006F000B2F4873BA55387BDB82279BCEF983EBDC5
:100700004058BEBDBF14A13DEDD2CE3D58AA66BC37
:1007100051A0ABBD12F00EBD10C44B3DAD6EA6BDD9
:1007200023E7D9BB7816213C4BF2B0BD54122FBC45
:100730006871F03C916D703C6C97AF3C47C0D2BD86
:10074000471D4A3C3DE2113DDAF3AEBC78A355BBF0
:10075000F8B7FEBCDB4A193C8A9DCBBD145D1F3D3A
:100760001156723D4BA950BD8E872C3D3C15463D20
:100770007157A1BDF5EEA8BDE5C7B4BC45D1983D04
:100780000B81333C7EE1D4BD59501FBC428BA13D4F
:100790002D4320BD89E101BE2EC30ABD62ECCB3DD5
:1007A00037EBC33CF896E6BD70B84E3D94DFC5BD4F
:1007B0003514963DE85C21BE21BD1EBDAAE98BBD66
:1007C000114AC0BD0A89B13DD4EECCBDB0C473BDE1
:1007D00049075CBD20B583BBCF950CBE5591A9BD23
:1007E0001F8E413D4575813D49F0ACBD3057403DC0
:1007F000AF409A3D218D98BDDE4AA6BDEAFFABBD54
:10080000C2B07E3C4581693DF49EBC3DE8D41DBC30
:100810001D1CE8BD61B4E0BC16BC20BD748EB8BA26
:10082000386D663CBD1FBEBCAE736EBDA6061E3DD8
:100830006AA8233D875CA8BDA686573D8FF5F03C8E
:10084000A3B28FBD633105BE8ADF24BDB3EF033D84
:100850006EDE2F3D302197BD428DA4BDC0B3093C53
:100860006BBAAEBB9C54D9BC4B24D8BD90E4033DBD
:100870002C04A43D83CFB6BD8D5CE3BD20AE97BDF7
:10088000EC1C773D0B4E093D4AA3363CEA81093CFE
:10089000726213BC379446BD43DA82BB2551843D56
:1008A0006BFA98BD88F661BD33B7BFBD3DBD99BD3C
:1008B000F34937BD86CEDB3B6525173D581D07BB89
:1008C000477C89BD8EB8803B92BD12BB9691B03AF1
:1008D000A4DF10BC7236A9BCD10BF6BD69C81A3DA5
:1008E000D398063D2EB801BD864F1BBD9060E53DF7
:1008F0006E7D00BEABE3A939334D3B3C02E965BDDB
:10090000AD266ABDC993383D5925DE3C02905DBDD8
:10091000EE6C5BBD71A9293DD1F5A5BC9B0C82BDD8
:100920004C4DA53C610FB0BC59CA613D3406113D28
:10093000E6D80ABE8B1B4FBD647AFABCD368C4BD2F
:10094000C2A9243DF1F46D3C004B57BB31FE89BD7B
:100950001892DBBCB4EE9EBCE3461DBC51F7AA3D29
:10096000CCECAFBD60A29DBDBB83883D3AB2F5BD66
:10097000012BB63C58D2E6BC88D12FBDA6F8C53DA8
:100980009623B3BD7EAC8BBCD95CB8BBB435AC3C54
:100990009CE37BBCAC51573D22A99CBB40C68BBDA0
:1009A000CB052CBD970BA03DB98779BD43A712BDE0
:1009B0004582A9BD37B7973CA92AAC3B000000008F
:1009C000E2A6093EF44368BCC363933DA2BF0DBDDC
:1009D0008C3722BDED3A94BD11DC10BCBFBBB4BD59
:1009E0007F2FDFB952511BBD5E9D8EBDB9B1E13C79
:1009F00045E3AA3DD519CA3D85AAB2BD93A11FBD45
:100A000000000000891242BDE0C88E3DEDA8673CA1
:100A100014FCDD3C4108A6BD44BC893C443E9E3CE0
:100A2000DF875DBD64C63DBD30CCD83B86B1493D56
:100A300031B27EBD4C7934BDB88936BD46A858BDAB
:100A4000B6A90A3D001800BE920A44BD79D231BA57
:100A500055AD35BD60D4A73C3BA6FA3C0000000074
:100A6000D6D48C3D00000000B323803D64C8E0BABA
:100A7000462C923C6969473EE98DE9BC5804553ED5
:100A8000975ACEBC0000000000000000796B86BDC4
:100A9000811DB6BC28856DBDD3454CBD9CC7F6BB3A
:100AA0009AFD96BD391892BC4465E0BB8DB6C53C35
:100AB000075EC3BB000000005DBBE03A8E748DBDD5
:100AC00015E3CCBC5E8EA9BD8A1A893DC86848BDB5
:100AD000359101BE1BEB53BDE9A669BDEF7885BD1D
:100AE00006C9183D1AEBDA3D6A83D23C4F9B12BD12
:100AF0009DE37CBD2D169FBDA9AD71BDD541CBBC7D
:100B000095A779BC034420BC2C95B63C84D0603CAE
:100B1000801F063D45B6BD3D000000007A6EBB3B20
:100B2000F583303C60568C3D61FDEC3C808E1EBDF3
:100B30000F0F28BD368707BD4EEA9ABD9A63ABBD3D
:100B4000205ECA3D7033A3BCA7109CBD36BA7F3D62
:100B500026F4C5BBF7FDCABC87787BBD36C2BABCDC
:100B600018FB453E97AC9D3D338404BDD55485BCF0
:100B70004007343DE228A9BD000000007D20B33DC0
:100B800007CF74BD805BCA3BD0CF7CBE8FC133BE64
:100B9000FD4C10BEC9E2D8BD4A5F98BD329840BD39
:100BA000AC1BD3BCBDAD58BCF20F733A71A67D3CF3
:100BB00008B3043DD86D6F3D3D71B83D12E5FD3D74
:100BC000F363243ED1864F3E76787787977A86996D
:100BD000978778979A7977996999667987888A69E2
:100BE000877899887769979899789987888979A873
:100BF00059798877978987997999697767889777F5
:100C0000A99967659A7699797977787969A7999991
:100C1000A8889998998789688976A9869787997706
:100C20007777779778978B789987798777799A9874
:100C3000976797AA678879767989778789799A58A3
:100C40007867699989A9778867887886988677A868
:100C5000697887989787679A96597679A689999639
:100C6000788798A87865766966878AA87978699878
:100C700079999878987977688667756759888777BA
:100C800078A9799666687877977899779899675868
:100C9000A687A7789876A979A99A799879697967C2
:100CA0009A9778B97A798697AAA798AAAA5879982C
:100CB00088968A8A98889A9A988879AA8AA8877A38
:100CC0008A79787699878A9998989A9B787B78BA66
:100CD000887787879BA99979A89788AA87AAA978EE
:100CE0008A676799ABBB8C878897A978BA899797E9
:100CF000BA969A7A9A78998A8B9B87989998A9A696
:100D00009A89A88AA9A96A8987879799976B8AB9C6
:100D10008A69A76878887898A878AA7A989678A92E
:100D2000899AB978779666777A9A799898A8988800
:100D3000776977AAB9A8687A869A7A8A89899A9A05
:100D40007899897896A79A9A98899989997888A99B
:100D50009A87B89877A9879898888989A98A87688F
:100D600088887686998989A99A88A98799A889798E
:100D7000A9A99B986A8898A9879979A96899969B47
:100D8000968987BA9A8A888A9998888799A787774F
:100D900079778A889677977898788778887A7A8921
:100DA000878AA87966797899979A968878797879F0
:100DB000767AA9965AAA89797787887A578978673F
:100DC000A69877567889A97679979999987799A965
:100DD000B8A998896A9B8A97789A8899A989A799C6
:100DE0006A8AA777976A98989999789979B6AB881B
:100DF000A889999A97988A7869B969B9A9999889B7
:100E00008979988A988886A69876998679A898AAE2
:100E10009798A78987BA9A7ABAA8A9A7987977984C
:100E2000A76BB8A7BAA678A8788987678679A987B3
:100E300098779AAA6877698A5AA867BA589697B92C
:100E40009996A99BB967967AA67777A9776A6798E2
:100E5000AA788A998A5589998A768677998879872E
:100E60009876B7876A7B8668879969997A69668672
:100E700086676898A87566A98687866A8877A8783D
:100E80009A97867768988876879996AB8888684914
:100E90009A86798678869A796889658799989789F4
:100EA000A9958977575A7887885967776A797786B5
:100EB000A798666796678878AA799896889897879A
:100EC00097787998779A9B899A7778AB888A88A956
:100ED000B8995A7A7B7899976669A797989997777E
:100EE000A977677989869C7678A779A97B9877888E
:100EF00099978898A76A77867659666679A97886D9
:100F00009A7AA58778A79A787B87979A999A9788EB
:100F1000B9798789997867887979B686899999772F
:100F200096995867778897787AA77789AB99889741
:100F3000A78777AA7978889889968A877897997AFF
:100F4000977A875987A899A88A877997A88BB689AD
:100F5000A7999A98788878779A98998987A88A889B
:100F600079889897779A8B978888A9887A896889E9
:100F70008A97889B89776A9978889A998867778908
:100F80009897A8D9A977999A78797789789878885D
:100F90007A679A699889878869A8977989A979A8C9
:100FA00087789989A78778898879979779A97878B0
:100FB000998999787787A968669898AA979886A951
:100FC000999986588868789888799999778A9879CC
:100FD000676788888968A787696A76799879979713
:100FE0008878799967699C866977767978778A7A3B
:100FF0008A799997A8A999999A757698A986866702
:10100000767788D7879A85888988988699A8786717
:10101000798799888885A79757896779B778985984
:1010200079859888998C87A999995787777788794E
:101030006A979999A9768885978994698799887715
:10104000A679796A577886768998777B676968A9DF
:10105000886899677885878777987A977797688976
:1010600087757886868A9C87779977797B86768656
:10107000A9978989A77798789B68687688888995E1
:10108000789887A99888889989999698779969997D
:10109000979667799877667785968A69697768778A
:1010A000767A788889888A58778789776988888660
:1010B000897696677886897A9AA69576879A6967F7
:1010C000778888A886969A78678A9A8A677B87A99C
:1010D00096799996689AA768A7889A6779778768B2
:1010E0007789A9A7B89C9B879696789A98779899BC
:1010F000867798A9978997AAABB98985968A7976D0
:10110000778899B98898977A7A9B99AC7A997ABABC
:10111000C79A976A99C99868B8B89B979A79888747
:10112000898C96A7B9AC9B8778B87899A9B8A7B9E4
:10113000A8A78AA9C99679ABABCA68AAC9AAA7B851
:10114000797B67CA89AA6BAC798B8888676A77775D
:10115000975987967A7867A8659698768A668858A8
:10116000A77A885698998A799788669A889775A8F1
:10117000965769978866878AA99786679787695679
:10118000988858B87678898A9998777A798A86CAB9
:10119000C8767969699B799897A98889BA88698698
:1011A0009898A9A9BAAB7B9979989AA9ABB7A79750
:1011B000B98799AAAA7796ABAA7B7776A68AA7A9B8
:1011C0007B9B96BAA9B98B7B89A8A7887787775824
:1011D000987889787A566A7759988776A6777A7652
:1011E0008787A7885579878997A9567998B7979659
:1011F000A67798B96A88589BAB767778869A79965D
:101200008A689A89988888A989A7997B888A57AB20
:10121000899979889B5B9697B758B868B99699660B
:10122000A9849859A8AA69979987698AAAA888A6BB
:10123000B85667BC987699899A5B887AA99A797822
:10124000978A668A96B88B6A9669989677988887FF
:101250006B66989A78A868887AB9ABA8776A79A8F3
:1012600078A7A7A868698768698979888879B8990B
:101270009A9AA97669A89A8889959996B887889A3A
:1012800097988957AA987798788878796889B99AC9
:101290009AAAA779699A979889B9A7B8878A877906
:1012A000889B7899879A9A89AB9797879887B77A16
:1012B00098A8889A7799997999778BAB9A98A8B8D2
:1012C0009A8A8ABA97778899896877867797897989
:1012D0008889768876AA7989798A989A859767AA7B
:1012E000779877A899A989767987879976A899991F
:1012F0007799978B9867788879B977A6A789A7A7F0
:10130000968A8979998886A8897879699899796A75
:10131000879A87789A9699988866899669A999860E
:10132000A8697768999B8AA978A788786788797966
:1013300088787896A87689A9696976959A7A98685E
:10134000A898A9C8999A78A989A78999687778A946
:101350009868787A87947A888886A89A8989A978FB
:101360007789879987779987877988977899A8A8BF
:10137000999989A997676AA899799A7A58986A97E2
:101380008798998999997A87969778866777A9A88F
:1013900088AA897A7A9A88887777A78A69966986E7
:1013A000777A78899666667979877A99888868994C
:1013B00087888856988677876598797A9787988AF4
:1013C00078879758A99975769669967586958966EE
:1013D00055888997587787668A8788656976798678
:1013E00099898787767575797978679846A9778915
:1013F0005778795666867777858888B6A9779788EB
:1014000098769A87886576A59877968569776987AB
:1014100046788897687A777897697A76788789772F
:101420006777B7A98A95977767A8679875A9785756
:101430007776687A6985967878BA8789A88988687E
:1014400083896658876996778569977C796B6897F1
:10145000A68877968BB7878676887A687767675885
:101460008667799969876777688787688B88A865B1
:10147000989667B6866886999A88966688788779F6
:101480008B6879967886887997A9779B888B775926
:10149000A68876898A868889659789689A767989FF
:1014A000887AB667787C6B969696677A9B889796CB
:1014B000A66566B7B86868B9BBB89786C878767805
:1014C0008B89699996C67B897A898898889957A962
:1014D000B87A98798978898865A67A788A897887A8
:1014E00096756957789A8CA996A8A898BA7776883D
:1014F00088788898B99898AA9AA87786B89A98A868
:101500007A6B9AA787B8789A78658676878689767F
:1015100046976696957875697678987665878A880D
:101520009866677968866688768679659889778906
:10153000678666786787977667978979876576A7DC
:10154000758678876786958895979866888858689D
:10155000698899766865898975985969A9977976AE
:10156000696B7878578886899686868967778689B1
:101570009678989697889677A9969895789699866A
:101580008878788688678777978896866867588787
:101590005567786885558796865958976566886631
:1015A000595768574675846977888775668956598B
:1015B00076678688868876656346968659857665D9
:1015C0009476654578897A969878869A5889776668
:1015D000998676768846698895675777689768759B
:1015E00089568A68587896868557878A57586965D4
:1015F000756687A778769879898777886987676716
:1016000088988685568677678877989A889A78B971
:10161000688798779A7A9977976989977897886889
:10162000A886A959A8BA6C6897796669AAA665B60A
:10163000866988A9877897B7A75A86669798868714
:101640008A6B88C989A68A798A8A895A597979BA26
:10165000D67668787A49888887656657AA987756D3
:1016600098765969BABC7D9888688A87B86765B5E5
:10167000B787676B878887A9B94A775A9868896955
:101680007B6A79D888B79E799A6B8867899696A97C
:1016900077888A7868AB8968A898969888A87876B9
:1016A0007A79686689898A97AA68A696887768662B
:1016B000766689897878986669586878898897778E
:1016C000666798A8A987978797768776A798999647
:1016D000877A779887669A8A9888778867898788CB
:1016E000979667795868A6787A77A7A68769776901
:1016F0007998A88A9A899777889777787778996878
:10170000978A8A55689868998B9A699A989AB9893C
:10171000B8998886869A679A97A7877887889AA9BA
:101720007A797879AA8987A9889AAA89779779880E
:1017300089897A9999989966669A9BAA897879A8ED
:101740007B98698AA99A8B8A7787A869888A96691B
:1017500058A98687687A8879A96885A869A8A88918
:10176000997697889965A9798A99A98A8A898A58E0
:10177000797987997779788868399A888797A85A84
:10178000A686A9AA897697788767888679878696B4
:10179000966876776AA8898659987A96895968985A
:1017A000969A68787677657977A7776867678669A4
:1017B00096886876A978879569B89A98B88877489E
:1017C0006A789887769979697689869A8788886809
:1017D000978578866A86757777885B568877877766
:1017E000976978A88777667785A886596A58A87612
:1017F0007678999867866698A966977789797588C3
:101800007987687A66867679799796876679B998BE
:1018100067878687899888868978AA587659A978AB
:101820008595889999548579686979876689686505
:10183000675989676977658768977B6A8889864A67
:101840006788867978996586996687859985A9B923
:101850004986A678897A668AAB97AB89997AA7A7D1
:101860008AAA9669BA76A7898868896897987987D5
:101870008A7B796969A87977757B6A9A597897BA6A
:1018800075668A7B89789597669888ABA79AB879A8
:10189000B879B8879BC997899BB6AB88A87A99B95C
:1018A0009799A6C8578A87A98A98688A7B978A9940
:1018B000B76B97BABB9A89AABAA98ABBBA9967BA11
:1018C0009A8A98A79AA96B8967899699886987796E
:1018D000B688A8898AB88799A9989896A9688687AA
:1018E0007875A7A7976A899A97877A898BA68A7746
:1018F000A778668998668A9788689AA8877788B84B
:101900007B998778699987886AA48A8A7977B95692
:10191000AB87697779A77787B998656A7689A8A828
:101920008997879947B99B967A679A79A75988A822
:10193000AA7888686798889767676A9C679789AB71
:101940006B79979889AA8B7A789589689A89C899CA
:101950009B879897AAB98798BC985A9A978B98B9F9
:10196000AA9986B76958A8877A69A9998A69AAA89D
:10197000999A799887A89B8A77886BBC8A8979BC61
:101980009B7A8AAA78AB8AA87A786A879689D8A738
:101990006B97A99987B99878ABA85989598AA9B939
:1019A000899797B7A888A88998A78878B9888998C7
:1019B000796A699B97A89A6699598BAC9977A89A86
:1019C00097776A79897A9A9676868A7A967AB689A4
:1019D000CA89987989BA8988BBBA797B69A8BAA873
:1019E00078A996969A9AAA889B99787B8869ABA7DA
:1019F000999987A68988A9A9AA7A6B9A98A778AB9A
:101A00009B96A99A6AA9877B9888998A8A88A766EB
:101A1000CA99A7877BBA9A769A98679A88AAA9A83A
:101A2000A8A9A9A968AA8AA86A98896A89979AA779
:101A300089AA7AB8A9A899AAA9769AA9988A78AA07
:101A4000AC798ACAA9AA9B8998777A7A979AA7B912
:101A50009796A8697897899968799788999A7898D4
:101A6000A9A9977887867A989A8898998868AAA861
:101A7000AA89897889897896B7868A7987A7977796
:101A80007B9899BA68AA9B8B7997878A8888699886
:101A90009A9889787A6A79987778777878A79989FF
:101AA000A777697699AA8A8976A789979986989956
:101AB00098696AA8988976799889978788887867D5
:101AC0007869A67687AA9A8967988A9A89AA77995F
:101AD0009776799989877A9979A679799877798AA1
:101AE000A7A96978778899989998879999A89896D5
:101AF00087779877998697A89787869999989777FF
:101B00008888A88887B97B987687988B7769895960
:101B1000977879898A89869696577698898A988857
:101B2000988998785998878999AA8597759887761A
:101B300086968966789776B587859966987879A626
:101B400075788678A6969796879987777678798537
:101B50009995668976896786798756856A866786C4
:101B6000876B9999865695767867667766888986B1
:101B7000789987657667667878A5997A9897566692
:101B800068877875588779768879878A876897C74C
:101B900086868986A59B66979757A779B9688786B1
:101BA00087987769BA896B7786687B67A897877704
:101BB000997A688C9978866666CB8A598677855833
:101BC0008A867ABA88689A8A8876A76977788868D0
:101BD0006867A789868766778797666A579A89773D
:101BE000897798B957789A799966886687688869F5
:101BF000798997755967889878687879667678983A
:101C0000799978956A789999996A8AA6969A786660
:101C1000997879A8AA5496996A987C978797798831
:101C2000A89B89674999897877A786766A87999763
:101C3000778679859869866988C67876A78998763F
:101C4000798A797567889767989A8998789687A826
:101C50009699A989766869896967A8779B87898732
:101C60007978785989689689889969996797789574
:101C700088788677768877999897869996898897CD
:101C8000779678579966888596699697856799B605
:101C9000A8658596669887658A8776788778A898F4
:101CA0007A987899999699A99987795887696766F2
:101CB000878A76698768677676AA8A885678787977
:101CC000667688AB695799766965898A78676755BA
:101CD000A9969889A7B867886997758755796785A0
:101CE00078769798589B7A9898666777A9699798B5
:101CF000A776598465766A79776998B5989987B88F
:101D00006B9668A66767896A7885788A878A98A9B2
:101D10007699699899688797867786876676888A9C
:101D2000667B765697897B77998698789A89969874
:101D3000A8969787799A778A954987768977698669
:101D40009A87999888A78A7A999B99AB8A88899962
:101D5000AAA98A799A9B8879A997B88999A8B897E6
:101D6000AA87977999AA9B99889979889B88AAA824
:101D7000B87B989A89789899A99978B9A979679937
:101D80009B7A89BAAA899B8B999B8A8AA88899BAD7
:101D90007979669897A7888AAA88AA68BB98B8A80C
:101DA0009A8A89A7A9A9989969997A986A996B9842
:101DB000678A888898A999A7889A79BCA98987A9E8
:101DC000A798799A86A777A798979996977688691A
:101DD0009889986896B79878999A789A667BAA892C
:101DE000AAB989A679A9B9998A7A98987689889A98
:101DF00089AA9AA869B88B7898889ABB69A8989B91
:101E00009888AB477A8A769687788A7A88A7878770
:101E100079A89869A9B87A799A9799A979889898A8
:101E2000A8A898B979ABAA979A7A988977898A8A63
:101E30008AA9896878BAAA888977999B78989AAA92
:101E4000888887A9696A9869769A89979988A8681D
:101E500089A7A97876A988779AA98B7798878986A0
:101E60009A879799979B9B69889969A889A9887986
:101E7000A99996966A98887997989A89A88798A830
:101E800068879699A87A88A89A88878967886779E1
:101E900068779688978666979797A66997889778C0
:101EA0007878987799779A77678898986767A987F5
:101EB000A9899978876877899A698676A6878978C3
:101EC000898888DA77799789897899877998977650
:101ED000768867797A8A89878686797888996897F3
:101EE0008877998767A78C8696A797A7A7988997D9
:101EF000768986969797999899699677677779689A
:101F0000789A99D877689A8798789887787798692F
:101F10007868A79A98997797866785987988797766
:101F200086A99786878B7D789787879999998977EE
:101F300098769A986798897976666968A878889873
:101F40009A879ADA867998689689699A87976777DF
:101F500057899887877579894659569A688989A9D2
:101F600066977667686678777789847968798796DF
:101F70007A8868947897878968869696897977862B
:101F800068779A8586A99669969966947894985602
:101F900067A859978437688758466587798677890F
:101FA00066867848665687897976958964798666E3
:101FB000588A876466AA8755654477486887765942
:101FC000848877755946638686977784797787966C
:101FD00078797887658A9897A88988989877798892
:101FE000979B7997685896997888799A66799967CE
:101FF000988996AA4A7989776997787958768898DE
:10200000759678A8996765778787968668988778A0
:10201000969767796A6996778888886777798969F2
:102020009678969698977579877689768667778673
:102030009997669987896987866777699887887687
:10204000788898886988789779877699668A797682
:1020500078898987897776677867996997696898B1
:10206000677687989887756A989977696977797795
:1020700096766999689767A7A7977887867789770B
:10208000786669597797797667798898687B675613
:10209000B68697766A767968897678667878676999
:1020A00089976898675C9567877786888868767966
:1020B0009896677669879798A7668668679878671D
:1020C0007999878888769B9879A7878979786967CD
:1020D00098866898886768787767676779668756AB
:1020E000986886577678758687677A878A8876862D
:1020F00096766888986778A7A658756687678889EE
:102100009999777668A899888777786867767787C6
:1021100077998779868989889766767789876686A9
:10212000896A767886856A997787697676778786E9
:1021300077886879988977857687698889788988A2
:10214000987776B88868977786978975776598A61F
:1021500067877796765877A688797797899767976C
:1021600078896789A8857A79976868767587897884
:10217000978986A8697968886656787A5988867AB0
:10218000699699987658A57698997695788768B9DA
:102190007998A687786888779A868989998878A9AE
:1021A000876896868A8A6CA88869778875779798F1
:1021B0008869867A5789888869C9889877778899DD
:1021C000878A79D9AA78898A65999886898787784C
:1021D000787896977689879888A6896889688979B2
:1021E0008979A898A9789B796967676874769779DF
:1021F0006A67A88679988869699A6B9B87977698A9
:1022000096A97786987788897899779A99788A971E
:10221000886697969A978997987895789788769709
:10222000778997787896797888987A967779876891
:10223000867879A579798998A98877687699897750
:10224000879799C987888967778899787875B687D5
:1022500089989996777997888889AA9978787877EC
:102260006769888A9998897986A7689896898896EF
:102270007779989688769888A966968789988897B6
:10228000788789C9A799788A8B88799B79687699A4
:10229000A77776989A9A8798A798A578898966A942
:1022A000898779687AAA7CA9868998998A99988673
:1022B000969A97B999769688799B889A966879685C
:1022C000898889D977898B879B7899AD986C88A9FB
:1022D000D899A879AB6B9768AA97D899679989B963
:1022E0009969978977BCA6A76A799869ADA7877914
:1022F000C98889B8B97889AABC979B99997997A90F
:102300006B8887D9A7B78CAA789879779698B7A75A
:1023100098878798958A8777AAA9AA79778999A8AB
:102320009A8B97977968978799999989A7879A68D7
:102330007867898959999967899A7BA9A866699765
:1023400076976758A877967677989697888978567B
:1023500089675888655579A9665574888587767721
:1023600086777978767B7977775667785767897833
:10237000776697757768784859558A76667678795A
:1023800098889795897898987699798A67979A66C0
:1023900089997876886696778868A679879979A7E3
:1023A00086789776677776979678976688966A970D
:1023B0008879966667A7888667578A885989897950
:1023C0009A876869A99966887994897499748979D2
:1023D0005789879684A7779768999996639796986F
:1023E000868689869796978977777796748878997D
:1023F000876678764769966766A8688547776679BD
:10240000869686778838756899747869977989751A
:1024100097967877769787995787587665988786BD
:102420007987988978889899877879989A6868766A
:1024300068A999865788986699988696698979993E
:102440008A8577966989999876867695878697772B
:102450006869678897788978677966996579A759EF
:10246000986867698AA4969889768675669666766E
:102470007689996A5987A76657899889589678788E
:102480008586877886699665877577677887986681
:10249000679887987577769866795898657668868C
:1024A000888889785854888786697688756676889A
:1024B00069877856775978687657976678878788D6
:1024C0007797766767579867998A67968886888826
:1024D000A976689778576997767985978977689804
:1024E000886A6767877A8CA7976A9A7888798998C3
:1024F0009677896A9796A8896567895B87688768F0
:102500009677669778786679899678887896A7B965
:1025100098896878778B7988A89999699888A89814
:102520009887A776B8A987A987788A97B87997995D
:10253000688AA78B78A98A66697B9A8B66777A788E
:1025400068769798A9778799667789867869998850
:102550007A99968788A97779A876897A668679A7FD
:10256000897BA6979A8776999779788689889999A9
:102570008789789968996A9A69A879889998789AE0
:1025800099997AA989767988A697969A8969998777
:10259000779789898A997A7699A97978986988A8A4
:1025A0007788A8A6AA877B778988796998888778A9
:1025B0007998667A7998999889B8799A968A787785
:1025C000879899A78788998879986798A8989996FD
:1025D0007897A89997959778AAA78977978879A7E0
:1025E0006AA9978799987989797977869969877699
:1025F000AA98778A6AA77A8678A887AA7987889915
:10260000977999BA8976786777888997999879B808
:10261000798988989898797898869898766697872F
:1026200078799677766A87887878976969997999B9
:102630008767775A789997686877778987787998DC
:1026400087787879986999868A9898797979899933
:10265000978779797989888A897778778779799955
:10266000998A8779889A9A9997896889876789AAC0
:10267000A89968A6598989978A8A88795999798900
:10268000998799A999767A796BA88A6A987A88AA9B
:1026900089A6A87999AA7888A988A59BA77A898804
:1026A000987499A99AAA9A9999798789A69697A7C9
:1026B000A98A99A86A977AA979798B89689997984C
:1026C0009B7988A8AAA89B7998A9879A9687A8AA8F
:1026D000AAA99978897A986ABA6978789978A69A2D
:1026E00089A768569A969A878A88AB979798A989F6
:1026F0009A98888A99AAA889A69A7B6997879897B1
:10270000997A999A8A998989867899869978B9B8AF
:1027100049A6A879899B96999B88A699799787B8A5
:1027200089998866A7779B996A77987796A78A8709
:1027300068A9886BA78AA977768B7A597788789B5E
:1027400096A779AA867A9577898799678787966702
:102750008A97787967968779789976A97798797A38
:102760009A8677B95888A698687978A876689898EC
:10277000777A99855888777776768A765988999A7C
:1027800075998996776896869577A675797697650F
:10279000698879797496989658765A8766777A8791
:1027A000678989A9596686687867657876597888CF
:1027B00077788856678898555695A8794987669797
:1027C0009677779568596578889778868795888809
:1027D00058896A886676889976689998559978773D
:1027E000888777697974697777A7968665998788E6
:1027F0007A9686698889777554C8996857869967E3
:10280000788697869778977A89647765799689B577
:1028100049A569979559976979786869647869884D
:1028200087898658B8B48B969756A988B487686903
:1028300066A67A6A6976966546797958578889577F
:10284000847689996667758599788988988789B823
:102850005AA7869888B9A989A89779A97898897973
:10286000789898A9A9A88B8897768A9788697A79A1
:10287000797A989B7988778989A97A7B8986878AEA
:1028800075689A9878978589797878767885868931
:102890007999868669798997888777A976896887FB
:1028A00078AAA7898976A7779968767997798A67C8
:1028B0007897968866888979987A7A8A6777798905
:1028C0006877798867789966968886766A77697A6C
:1028D0009789967979996979888996878A88978876
:1028E00096A78778A987868787BA879898799A96CE
:1028F0006969789879897799AA77766697998788A8
:102900009778996789A669869785778868A966A95F
:1029100077896767A989AA997869989864796A59C3
:1029200066686786AA8A896978887579969789889A
:1029300086787A9A78878989B9A897758A986787F7
:102940007B86999998968789887A68989A6A685751
:10295000A799977A99A979897A86AA77B986989753
:102960007779799A7AAB899996A9778898A77688A2
:10297000999696A79889668A9A877588AA7999768A
:102980007A8898CAA7968A9788989777979A89B8E5
:10299000B787A8997AAB9897A9AA7A6989A869890B
:1029A000899898A7AA8A6B999797979977A89787F4
:1029B000A777969C888696A79A9B69ABA9789998E1
:1029C0006B7877CB89B887A979776798A766998755
:1029D0009776A9978988899897A978989868799817
:1029E000999987978778799787679797988887972E
:1029F00077898998677877698679688799888988D7
:102A00007A89A99977A89A876A8877988A7A79873C
:102A1000888898897A6968999989978989879A882D
:102A200077958969AA95998799888878A9A79A79C5
:102A3000798977788A9788AA98BA89AA9A8899789A
:102A400079877978989798689BA7999A9779A9B97F
:102A50009B889A88AB8B9888AA9896AAB8AA8999D5
:102A600098A6B9999A999BA87998AA99A9A6ABBA58
:102A7000B89A9AABA7A8A9AB9B5A8AA9A999A8A862
:102A80008B987AB999989B9A9B97988B9A9998C8A2
:102A9000BB89A97A8A9A9A98A99AB8A8A9A8A98A52
:102AA00099868796BAABA9A87778AAAA9AA79AAB6B
:102AB000A78A8ABB67A888ABBB7999BA6AA9AA79A1
:102AC000A88899AA9998888A89A896AA889B8837FD
:102AD000B68769787B9578886799576658A88998EA
:102AE000787887B7468B99688789978A8A78968697
:102AF000A89978A7987866AAAB959674B99B99958A
:102B00008B8A979559B8999A8978789B978A88592A
:102B1000A78A99798A7568796987979776667768B9
:102B2000887589A9699A8868869897989A59789932
:102B300077789987A9789888A9A66677A78867780B
:102B4000AB99A96688999A9676888775787559475A
:102B50007776869966948696479867878777698996
:102B6000777A87565667788898698665676988870F
:102B700079988A754798785558A4986649787A67FD
:102B8000877899556967976697879A768887B9BADB
:102B90007796788A76AA9889B87989886689A97992
:102BA000A8A669A8987AA6998A788B97997A697A5B
:102BB0006888978A7AA9776888AB9A7B67897879D9
:102BC00089669879976997989A88896599A877D737
:102BD0009A79A978A7979899B8798989679A9AA8CC
:102BE00088A789B9C88A9AA899878AA8968969AA5C
:102BF000A997797B79899A9977A98B9B8AA79799C5
:102C0000786688977A8975898A9987899787A9B715
:102C1000A999A988999A798999A988A999AA89AA23
:102C2000999A87A9A8898C778887A998A697A8AA2E
:102C30009989979B888A9A8A998A798997867989C6
:102C400076889AAB9A696798798898967876869903
:102C500047A7A8A888A8899898897A777877AA7AC0
:102C600078A9999788A5967996AA8A8887A9798656
:102C70005798897978789A68468A989988778A7770
:102C800084989859888864869A7876857876A98811
:102C9000597788A9988A9698789A886876789898C3
:102CA0009995A898777469789899897974678799BC
:102CB0007898896998A98A964587977A8A799788B2
:102CC00086877866977995789679678977769788F1
:102CD0009A989768769B9877789889797767999783
:102CE000699887A789998779769979678888A79855
:102CF000688869A886879789868A9A797A877A8781
:102D000096979758778A87688778766898877967DB
:102D100068777999889A986898989A979A9687A6E2
:102D2000759AA8776665879887688966968988689E
:102D300068876884989696895879869887888A8A59
:102D40006697879896587769777879897897998977
:102D50007987A67777A7889898A8AA97B98979A735
:102D60008A97A8978A988C879A78697989989A78A7
:102D7000676796778A96798766B97A99797797BAE5
:102D800098779AA8887885877A9789866878A7CA75
:102D900079999877878A6797A968BA69998A8A68BA
:102DA00089899778B8969AA88A999B79A69678780F
:102DB0009979996A99A78967568B7A9B988A6899B5
:102DC0006A78998A995986879A7979997796A9BA6A
:102DD0007A69AA7876AA77779A877779A879AA798B
:102DE0006898978998AB9A889869979A87877A792B
:102DF00078998A8A7799A877779A889B999688AAEA
:102E00008B8998997789679769A8798989AA66A72C
:102E1000A9999878A86777988689859875A8886908
:102E200077768759BA9789A6A8A7889ABA99A88861
:102E3000B898998A88988AAB886999766889AA85AA
:102E40009A6AA7A8A8A89A5B86888A8B889BA738C5
:102E5000A89778778874899769877577689878993B
:102E600088849766558A965878A995984B5779A87B
:102E700089699894A9776998B8747998A7796657F9
:102E80008A9986A55AA88A98869A67999996678793
:102E9000A6779687885976678779968899978868FC
:102EA00099796768A8798A8899677799A6996868EF
:102EB000A86688987768968689AA886899789767B7
:102EC0009979999789867878678897878889584803
:102ED000987987866895866868885869777686972E
:102EE00097797857577789789966969786789798DB
:102EF000887688656986797768A47976686988694B
:102F00009A989885676688898676689B7897798984
:102F10008688787989AB8778B78766866578797887
:102F200096966899A9868768788797898989778925
:102F30009899678B888677996868966B8697767775
:102F40008B9998AA89A88B7B79787A89789987BA9E
:102F500069976868986B989A76688688AAAA79585B
:102F6000978B8657BAA4A88678AA9797A889988934
:102F70008AA87A9A88899678765999887998AA58E9
:102F8000867A9897A78A87A667A7698A7A9999BA4D
:102F900089978A8786978A6799A8699A979A979A4C
:102FA0009988A996BA878A87687779978877779A70
:102FB0009999779B989799799A7A8A9C79A87A882F
:102FC0008869A868AA979588799B6A9797AA68AA3A
:102FD000689A88899868789A9867A8A7B9889A594A
:102FE00078A679698996A89879A9799889999999FB
:102FF0007799A8779978A87898A98A9AAA998998A8
:1030000085778877AA798686779888769A87796986
:103010009989998AA988A9889A877B9977999A7AB0
:10302000997687996867A68999899A8989877A871D
:1030300068989888989A897898A8898AA999898798
:103040007669A979987996A8789877967887A988E3
:10305000BA99A789A899878AC8797B796779889A64
:1030600088979987986795979979A89999879AA841
:1030700097A978B87989897A99A888997A77898877
:10308000A879989887986699978797998778878974
:103090006A889A99AA9C88979868A979998A98A821
:1030A00078A8689A9788999979887A9998A898972A
:1030B000A988787B78A8A89888999A9A9A898AA9E1
:1030C0007A7999B7A8987AA9766867978898A9971E
:1030D0008978999888AC9877A7A97A89AA9AA987B4
:1030E0008A8A88A898787C9897A978986979897845
:1030F0006968A98B9A9777997A978A98A78A889806
:10310000787968A79979887986996978788989879B
:103110006A688877679A79989A686A988A6978A7B6
:103120008A96A8986997AAA77779896A79869979FA
:103130009868678878789A9A78797A8A77A98AA835
:1031400097998AE678777787876796788977698706
:10315000767877677799677887779787978797974C
:103160006699889779767688877898798758878559
:1031700098688687678666667869866669896888DA
:1031800089676848988899687699696589666977D2
:103190008988966874888689879957987879976816
:1031A0006689977978977886779978676759789656
:1031B000A9897789567886877979879767878798E5
:1031C00067979958977598976787978678877A68E9
:1031D000779678889688898697996698688787977A
:1031E000896787978886979897A88667878877786A
:1031F00087766788567668A87688969867888987DC
:1032000098A9678799789769977697968787989806
:10321000A8997779979A9896988868678977867633
:10322000668989989986868876678899A987878626
:1032300099876989978777777998786867895789AF
:103240009888797AA7678876899896866686778738
:10325000587887878587879778889AA9886986A903
:10326000987778879677777796878677758889783D
:103270007769798787896785467788777967698AE3
:10328000968898587966A47688876787976687A610
:10329000878877977589867686888688886A77771B
:1032A00087858A8988996596A987896895877786A9
:1032B000777988964979676998797987678877886F
:1032C0006A687786775879798979977677666968B1
:1032D000969897967688678997686596787687999D
:1032E000878A7978879877778957669996876978F2
:1032F0006969687876979787777677886689699617
:103300006987678588789866A979886677887778E5
:103310009877767997789987889667997786769659
:103320008998978978876879986686698687889763
:1033300087696676689767878A9899866996769A84
:103340009868989789678786769786899679896637
:10335000568897868696868688779967796668877D
:103360006999779877777766879767897776968868
:10337000697668979876767988A78867899A877931
:1033800098678658888797968787797799888787F7
:10339000566676868889889897778666776886875E
:1033A00096978669777687989799886798987769C6
:1033B00078686896686668677778969657776667DC
:1033C000769687669867968789766786898667770F
:1033D00068789897857988779686687988896897D4
:1033E00099889898978667787776786886769866C9
:1033F0006766786787669768677A99695968669893
:103400006697785A976977878998A77598687789B2
:10341000A7667979669768967896788778666787D9
:1034200078789879978798688678885775798888A2
:1034300077696688667787875678888977888679F6
:103440007887786A865766669677976888767989E6
:103450007787977896778978787668787899688783
:103460006866889798779597787859899776889736
:1034700088588677778678877779897799686678A4
:1034800068887877676995787789687876896977C1
:10349000A89876779699687777876676878876761C
:1034A0009679879978967698986979698667976802
:1034B000866777A968676968779987866976888952
:1034C0007989784778587689757896687896677795
:1034D0008666859985698788897865686668589859
:1034E00077988888678666887679886988897979FF
:1034F0009669787867879869989796886777685902
:103500006888786677879768778886987977598703
:1035100086967976879967968777587768878986B8
:1035200098678797998A7689A799899987877679FD
:10353000998687676879667878996667877A696611
:10354000677799878686A9898999977B776977872D
:103550007788787769876886799886878967888980
:103560008787767797897688986688969969978805
:10357000798977876677897867688687986A78888F
:103580008B7A985979A679988777889A7799B79797
:10359000786677776A89688868889878688979769C
:1035A00087879799988A77797967888899787786CD
:1035B0007868657686686767A67898699888887855
:1035C0007B8968787AB88B977788888866857897BA
:1035D0007876867976889689A6899969897967A6A1
:1035E0008868799687979988866897687697888695
:1035F00087798899676679886799988667768686D5
:103600008797989998578478697799888699788761
:103610009A99797785997897A97676888767779741
:103620008997687688788687768789887899798A6D
:103630006778886A7877A6577799979846968969C0
:103640006869788A78667879899799678888A759A8
:1036500079779798788787986A99798A8677A888FA
:103660007789777997797678986877898879878A5A
:103670007A7AA67868997899885979887896887836
:103680007698997A8898768897879967798A6977FA
:1036900098786987986566996769758988A6779922
:1036A0007A8777877769759999796777697899784B
:1036B0007787786667898896687579759867979629
:1036C00099997976797986778995877A979A6675BF
:1036D000B89777767A6789676879699867A98797CD
:1036E00079967788686979868788968669898869EE
:1036F0008987797697779988B797A8988797776910
:103700009A88998787987977979878A57766767653
:1037100067878976966799987778797687796779D0
:1037200087689768867978987776687687799698A3
:1037300089767676876878777698877766998677B8
:1037400079877978987987988A678876667667879F
:1037500075667678667986767986878669776697DC
:103760007688689998898A97788975768868767650
:1037700088788676766779685677977767886876E7
:10378000797688886889777897868788987879663F
:103790008798667687768888867677677987765879
:1037A0006668986686688897787787697788666894
:1037B0006678688686878887758898898569776737
:1037C0007B898867969789687977978A66896787FA
:1037D0008688699657797869867676798766678765
:1037E0008869997878687778788776667567688762
:1037F000A7868896666889768696796888689686A8
:103800009898675798668969659A769876757887E3
:1038100086699997679767678788799689677877C0
:1038200077976866A589767967978767856A6797C6
:1038300068889767687668688685977976798766F5
:103840007998878897878587986778768669697772
:10385000876886888889678878786786898789876E
:10386000876968986798677A86986678776898779E
:1038700098876799578758875797789668776788A2
:103880005886766567779688766888978887787689
:103890007977779956887597878766666767998776
:1038A00067978887676668887776667967676695B9
:1038B000588777788686677685888766769688685B
:1038C0007697686689667687879878898A79577740
:1038D00079878678996896778779966988796978FB
:1038E0009698988777899789878977687988896989
:1038F0006966976989679866677786768786997615
:1039000089687799A798897897789877779A586788
:1039100088966686678888975788887666799978C2
:10392000686A977A886876798799867868788768E8
:1039300078897986786997577697667787667987E1
:103940008987897877898A86998967796896988935
:10395000868877A9877A98997877A767A9868779DB
:103960007876998969888977966997688668988949
:10397000A88768877996686777699999A78668683C
:103980008967789989888A9989A9966687986987C5
:103990009997798789A7799A568A669976896888E6
:1039A0006877967986796A8688887677888898890C
:1039B000776788687767869978669778896898982E
:1039C0008986688788766687899877768977989ACE
:1039D000698888799679889A69A8A9898977688990
:1039E00098A9A8698978A688796989A89998779A01
:1039F000A99897897979998779A987789AA9777900
:103A000096A7A9888678966789A77868887879794B
:103A1000776887678688AA9987988788788797695B
:103A20009999777796859689A77A89679677A898DE
:103A300088999898898986787958986868A9869825
:103A40008696796898679769769689768896797662
:103A500079996997746598876868568868976968DE
:103A6000787888575985958988688879677886979E
:103A700077988756788998556668966758679766E5
:103A800097778958965897969695979A976778A9B1
:103A9000897979887A767996966986667676A8663F
:103AA00087987999976A966997999687689775889C
:103AB00067887677979978A587898897889789679F
:103AC0008A98677899877A889A76866986877897B8
:103AD0008788777899978798A7788877776888987C
:103AE00078678699877A9588986897968767769891
:103AF0006987999899696A8886998A777976786AC0
:103B0000877987979786696789888868895667A6BD
:103B1000778799897888768869686989567779A7D7
:103B2000877987A88986986898777678887776895C
:103B300067988688866987675879767698968788A1
:103B4000777889678798888788869867688678688D
:103B50008A678876789866678769776786897886BE
:103B600098987687977A7776865677688868678890
:103B7000698676898876798987698A686887886896
:103B80006A878897796978878768979897887997F7
:103B90008987997877989887898897987679888996
:103BA000887666699878867998788996778968683A
:103BB000687686996896787876887868887977764E
:103BC0006A979778986679877789898977678689E8
:103BD00076888678979888889667787898776697B1
:103BE0006678897A978777A897789766969788777F
:103BF000A7989698877867889989878998978996EA
:103C00006A97698887889688877799979988678659
:103C10006876689878798678896678787997687709
:103C200078796797995676998976858866789977AD
:103C3000785687985766599666A7977989768689C0
:103C400077986777699776869679877858676879DD
:103C500088667687888878888886596677986866BF
:103C60008879677999968A88868668668959997667
:103C7000987867868799666566996777A566789963
:103C80007786678589977965A86877866975896673
:103C90007877979765869699577756897869868851
:103CA00088877679678668A9897887788879878709
:103CB000897A877879997A76769897985978696821
:103CC00086998988997675796888A7976976A7799A
:103CD0006897798765888986A989A896889889963A
:103CE00096776789A89789687886878676979956A0
:103CF00089899978579699688799699A768669A982
:103D000087797878786996587777996597958968EB
:103D100067659996856675A979877879896A88A68D
:103D20008976788987A585999769978896888897ED
:103D300078988798668698675879898A7779878985
:103D400066978789A7677899787997867885A697FF
:103D500068AA7879858A8A98A97AAA888889A778AA
:103D6000999A98A9989A88A68A999A9678A88A88FA
:103D700089AA987969A88A687789699A778877691A
:103D8000979899889888A7A88689A996A8858986EA
:103D9000799887989598A899997898A859A979A910
:103DA000978887896997779878789A79677997A9B2
:103DB000799898795788AA88578876858A899798B4
:103DC000777A7777A96787879698999998895977A5
:103DD000977789786575999767875889578679960F
:103DE0006798988867769579997A9679776A7897B7
:103DF0007888997497898797677597756A998858AD
:103E0000957776778A589777986796668765576724
:103E100096668798958698996669667654888658D6
:103E2000887968686687668878598687657698781D
:103E300088989665569688765555987567988758E8
:103E4000687789969948967778879886978888863C
:103E5000898788869578778968786666659789679F
:103E6000789689678698A8779989887887886786F9
:103E70006678798979986979785688665976786705
:103E80008896789687699667888879699788786828
:103E90007997789879668887778786797967798935
:103EA000679679897767986796698877997A897923
:103EB00098A87A7676987A885688877679876786FA
:103EC00088899966768885796599797678979989C8
:103ED000667676978769897A787AA87787989999A4
:103EE0007687876788776A8997AA999979A7999930
:103EF0008868887777678987997866698896875808
:103F00009889885876788676988978979898789955
:103F10007998768787689879878997789898996942
:103F200087786969A997A6768679999989879796F6
:103F30008896869889976788797777898788986936
:103F4000767A999696A986877779796898988699E6
:103F50005886788988898879966778699788677696
:103F60007779697866778778967887668A788676AB
:103F70007999977888998877879967767787688815
:103F8000968778586797868779877786898867962E
:103F9000668778A986697997876866679869789946
:103FA000776897697767867797887896967967763E
:103FB00097688877696666985767777777666677D0
:103FC00085966869786874889897889789659798BE
:103FD00068869876779788A88A756988778686989C
:103FE000889789989789856A9766776667897895AB
:103FF000676778686866696776989778878898971A
:1040000065967789767979787779888599669989B7
:1040100059767689848976969989587789898679B7
:10402000689998A87796859988689986955986673A
:1040300079778679787698687678897768678779E6
:1040400076777758A958647778796979769596A9BB
:10405000996988767598876798677A88A869786873
:10406000759877766776858A999869989998678818
:10407000989797795A978866869867774797989719
:1040800079979957885789769AA8879979A997A98E
:10409000AA787A7A895B999A8A69A779A68A999681
:1040A00079998778988A8A9788888987A79779994C
:1040B00077796AAA987888899A8B6A8999888978A1
:1040C0009A68998B79A99A9889987A888A8878A821
:1040D000AA889A9898A8877788A99A9996A988AA69
:1040E000AA87977988A889A778788899A79688A8B1
:1040F000A98A988A98788A89899A79AA989889B990
:104100008A797989AA98998A789796A589A97959F7
:104110008798987877649A986767658648779A9AB7
:10412000977797896666749997A77699886979775A
:104130008A7799969988799A8874698899799788FD
:1041400087979967979785A977897798886A498823
:10415000887878979A7579786868679667975767C7
:104160009686885967788787877978996777888965
:1041700076967778A8689696996575669999765631
:104180008768A87686968778778766967A6778684C
:104190008989688674878978767876988987996816
:1041A0006687886978659688888879789679896835
:1041B000796867875997989677666876787797864B
:1041C000877A79768A9899998776996A676777A6C0
:1041D000787877779776797878687588658768884A
:1041E00078A97899769596787897885979597978D1
:1041F00066686879678898784567977859677978A5
:1042000089997757877876789667A8679788998885
:10421000897988869896796697887997A996688625
:1042200069A8A999988679698887978687999699C0
:1042300087989896789896786866889798879A76F7
:1042400078798767888967868766979666866978AA
:1042500068768979698467977987867699696788A6
:104260006976887987656579978769876896699798
:104270009876885797787876975697796788876978
:1042800065978966996775999787867897899688DB
:1042900068687879799698969986967777997987E4
:1042A000757999876996868985767766988867890A
:1042B00058988858766986868679776A69687969B0
:1042C0008879968797979886898966779967887796
:1042D0008778779996789797997799996698789942
:1042E00077797877778798779778887876976897C7
:1042F00088897787688887686989779B868998A87D
:1043000077798678968777687989895776968799B5
:104310008668878697977699999766996889987934
:10432000967977997A99688797668A877687696890
:10433000996766698989996988998779679678887C
:104340007876765768687687799879768767A899B6
:104350005787878898A9787797786689699986A812
:104360007AA79699996597A88787998686688A8794
:10437000666898877896696675687A887978989A71
:1043800087788779877878969667968678769988F9
:1043900089967879777898876878996779999686F1
:1043A00067977888899767889879898876699868FF
:1043B000899788668866778659897897889869AAE0
:1043C00089876A4678787687A7A996656786599817
:1043D0008686997965698986999856698865677727
:1043E0005698897797978699967987799767787895
:1043F00066689676689688689899888878996898A3
:1044000077986765877897879A767998879666967A
:10441000698698966A7A66796969896777787699FC
:10442000978979999967677989898779788987667A
:104430009889999A7879977856878986A87879574C
:10444000968796A989B9A5999667879569866969B6
:10445000668667797877696997666A898999A8888D
:1044600078977997A9A574699776979778977887B9
:1044700077896966967798977999999899889677C0
:10448000986979697996987798799678678977792C
:10449000967789667A9B7978879A7A9979798789E4
:1044A0009896A78697957697979989788A89697853
:1044B000A97678698678888988669887A9688977CF
:1044C00079978699968999878989889A78797A6778
:1044D000A86668988B8977888788958678789668A3
:1044E0009669965798888B66778895877A789676B6
:1044F000A768887688888878B8999998998A8799DA
:104500008699897676A69969886886956885987768
:10451000567A8987958889999667797869697967DC
:1045200087786686879576788878976955679668DC
:1045300059769766A986697766869889A977888863
:104540009679688696669576767977856676A9A84F
:10455000499677669959969998868788899A876740
:1045600086639889879468769677698785778A685D
:104570006778775A597689576578768986979779D3
:10458000758886989666756677897679769887674E
:10459000877986787655779787968787877866783C
:1045A000977567786879858A777866776A87786794
:1045B00087967886879678767666976886697899FA
:1045C000887888A666878A789779788679888776C2
:1045D000688786769678679757A8886689976889E6
:1045E0009866687887757459786786898857889639
:1045F0009887868569688778899798986787869A63
:104600007776675778878886688A89779997487612
:10461000668796887A96879765879A686786777897
:10462000A9659698699867787887886678896678A2
:10463000958979B86687A9898BA87785586979A6FD
:10464000697978AA77766A6A786977769788578AD7
:10465000A6867A8769799997867975767797886932
:10466000668A8857A994667997987A998AA96886FC
:1046700077766987A7977677955A6557B978676689
:10468000978A774A76867899997686786867878850
:104690008969A79876996978878779968A777999C9
:1046A0009796A7A769766999987985888787A79744
:1046B000878886878768899979977976679878A6B1
:1046C000867688878696877696787777979786789E
:1046D0006786767768568966899778666968668995
:1046E0007684776768678679A9668767576866867C
:1046F0009877669879678678576777997789679703
:1047000096877966974798877989777997876698A2
:10471000687879977A6997A9997998769897689639
:10472000987A996867767579889679968777868971
:10473000889687979786678566A98868767787972A
:104740006988678A88887678998869777776799989
:1047500068797899779987999878999897866689EA
:10476000769896678875839797777969669776794B
:10477000878676A6A98987879968797A86797996CE
:1047800076887759A759788999968696889A9869EC
:1047900076798877697C6778996968768899889846
:1047A00087787888679384788997899798A8769985
:1047B0008778697778788987A776986798769978DF
:1047C0007997886679998978969979989769699897
:1047D00066969679699B77799696AA77679878779F
:1047E00088768978A978768989698A978977889778
:1047F000996877A9A98799A9889A898878989999B1
:104800008889765B96986889798789687988998795
:10481000998769989A877998999988886969778733
:1048200076997887796A8A89887879778A787766B5
:10483000776877999677999887886868879699981E
:10484000657866C87968987786A9887B879A67A70C
:10485000A78869867997898977866679679897683E
:10486000987A777AC87C8B97966978978A778788C1
:10487000779887B799896768998B8988A7796778C6
:104880009A7776D697B77C99987768856785979A4F
:10489000A9769787977A678879878C7877788777EA
:1048A00068A9969879897787A969877895986677AE
:1048B000778897896987777666AA7889A787978A9C
:1048C000678A67679877869898A8699A668788A79D
:1048D000B9677979778997899899889A959A787735
:1048E00098897777B78C8AA7987979779666888838
:1048F000A68787896686796A8A598B685675A768FC
:104900007A8889AB89597A8988897766688799799D
:104910006866676775869778986879899788A9998E
:104920008778898789848A889A6897789798897719
:10493000779899759977695675798A686787687ADB
:10494000868977678878667897756762969698669D
:104950004988966887866687888975986597868767
:104960008776999786549689785877857578876978
:104970005796675646886866756778696996978816
:1049800064976866786795876766986777797677BA
:10499000787966789A8699986A667668896989A925
:1049A00087A788896A7976776768979799898769E9
:1049B000588A68779997889786699A777866797818
:1049C0007896896869A89A97988798778976995888
:1049D000599958978879899897778698768A898897
:1049E00096A479687687958888869797667677996A
:1049F00059778888878A78886987687A5868897B30
:104A00008B987866A958968587878776A875966764
:104A10008A87899977A6999979A788997597979997
:104A2000788887A958867A79996987968869996973
:104A3000689999795977898875A59A8A589679A835
:104A4000788689688958987997899876979896880A
:104A50008988997798A5896688896988699899A9C4
:104A60009987968866687B6889889766976997773B
:104A70009888968558A8787676788A9B5777A7A9DC
:104A8000897678785A7979999B899699898886A6C2
:104A9000598A877766AC9777A7A67B6769978786D9
:104AA000969BB989B8A67AA989968A76A7699988C2
:104AB0007A88786A99A88887999A798A788768A87D
:104AC0009876996B9679788688698699996898A876
:104AD00059698788776A9767888967697897989707
:104AE000779CA877B897968989699A787667987835
:104AF000A778899AAA8977975A6A988B9677768A3F
:104B000068978A377868648899978786A8A9A8984B
:104B1000879999968AA997669A779997899A7988B1
:104B20009789B7A789659479888888978869A799AC
:104B3000777778789878788869B89A79A7999889F2
:104B400099897858A8987898778778959799A896AA
:104B50006796A99776A896766A87879A96688789CE
:104B60007A799978978784787797978977678798FC
:104B70009869999759789A7887979998989777A983
:104B8000698A776A6879997889767989889849A84D
:104B9000788877777A9A699799889A9987997968BE
:104BA00087899A78877A7A978968699876799979DE
:104BB000A796778A969897897AA988697887788856
:104BC0008789767A896988777A8996699898AAA771
:104BD000966989879889878AA699AA68997A979702
:104BE0007679989789988A79986787786AA7778974
:104BF0009998776B886797889678978A7879688884
:104C0000867677BA9997869A787776888698A777FE
:104C10008678979769A688969B99886989999999C2
:104C2000887888769A687589897679986879876AA4
:104C300069798987A697885687887999A987698726
:104C400076678898889976759A857A8AAA9798BAA5
:104C50008A899868ABA97778BB99A57A978AA88A38
:104C6000A79A6788ABAA8B969956A978998898A82D
:104C7000A8AA8989789A7878AA6B8AAA46999A59B3
:104C80007B6899BAA7999A8A898698777796A78830
:104C9000588A787998B9A77A99878978878AAA9A59
:104CA0008989879988A8AC888A5889A6A776678851
:104CB000879A8A6987AA97787779696B6A88868ADA
:104CC000787989B88A78899A88778996A7958A8821
:104CD0005A88898676568897697884997688898AE9
:104CE000989487777776877AA988886575576979E0
:104CF00068889988576997565756695849987989A5
:104D0000A8877898674778796677998587868668CF
:104D100049797A8866B6798A69668A9868977A89BD
:104D2000997597B887857A78886987787689898927
:104D30005A8698575A977A56668968676998968806
:104D4000959788889859958989978866667688772F
:104D50006798A998679A969978766A687596667939
:104D6000788B99A7AAA88A7789968978768769899E
:104D70009969995957778977878A966657667A88A5
:104D80008788989979577788888599867987775819
:104D90008978799996A68969788989666676988AE4
:104DA000798A78A9677897799868A8977568898AC1
:104DB000688A69765887A85868A7688A5698A98922
:104DC000879779A887597778978A9989799979788F
:104DD000799A779966889778787A88989789889960
:104DE0007B9697A8998295878979AA999989877AD4
:104DF00067A887699999A998899796869997A7A886
:104E00008A9777898A8796A6789A7A86897697AAE2
:104E100089A9A98888AB977897A9A89A98AA9999F7
:104E2000997A97A8A8877A9788A69898B6A7AA6724
:104E3000688999AA88988A687A9A9AA8A88A999873
:104E4000897A897A879A98A6868AA897A667B98A5E
:104E5000BB98B9A988AA9769AB98ABA89A7AA7AA70
:104E6000799BA798A96AA5967997AA88AA8999781B
:104E7000679A9A97A89999999AB99B8B89AA8AA9AE
:104E8000AA7A7A798A7A8688798C9999787A7689D1
:104E900089788789897778686766A987A978778A02
:104EA0008A8CA969776A9568769A866A6A98779AE9
:104EB000A778A7B9A8987998B8877685997B8896B6
:104EC0007A89A7698899978A698A78998A79779877
:104ED00086777798886A999687879979A8A6896846
:104EE000969A7868999B958867A798A98987889AE0
:104EF0006978697AA69A8577868A997AA9687858AE
:104F0000AA78789B79A88988988789889887A8C87B
:104F1000777997888A99979889988978AA797999D9
:104F20008A78A996A9A99C99898967796796A966BB
:104F30008997879A88696697897B696BA99886960D
:104F4000688988D999A9969A89777696789897A644
:104F500089697969997677898767796988896978AC
:104F600088969898888868776979958777979798C9
:104F70009979866A67987986766868676697979957
:104F8000769888A888A696979788778B786B798784
:104F9000A99997676877679878978B8789787776E4
:104FA00067878787788C699987989669AA6996A890
:104FB000878978979998798AA8D79787A8877698C4
:104FC0007B96996778A7999997A88888887A86C7E1
:104FD000B989A8988AA98998A8A9767989989A8A76
:104FE0008788A967A9A99A99767989998889A8A7AC
:104FF000A98999AA97979978995997B989887888AA
:105000007B799AB978A79B6999A979AA899B87A97D
:10501000A7878999AAA78A776787977997986A79DE
:105020009977697988A79A9867898778A9678A980C
:10503000B7869799A886A8A99A98A6968AA978A8C3
:10504000789AA9A787A7786A799A8A78997968A7B8
:10505000A7986797A856878987A8678988A77A68D5
:105060009787A687A79A9B888789989A9A7778A71F
:10507000A799A895877776AA987676869998AA7838
:10508000A86AA9967897998A7697999997AA8898FD
:10509000979999A889797899869774978997776964
:1050A000869C799969AA7889996887A78988899956
:1050B000777667A77A7979A9979988977A9899687E
:1050C0007A99A7989688989A79899988788888385B
:1050D000A6687779988488976878599889778859E5
:1050E00097A779A6696A9A78778795978A8987A812
:1050F0006687777489787697689476678867995613
:105100007978899698996A798A8A697978AA68A952
:105110009778798787589799B899969779999777D3
:1051200089896969B99D7B778776799889A9797723
:10513000A99987697988779657AA778877997A792C
:10514000877799A6A979696A877A998887A877A7BE
:105150007A988899A8577A8A996889787987877818
:10516000987699589789AA969999AA786879888A99
:1051700097978A868787A7789798795A9A798966C0
:105180007896789598687A88A5AA7896998669B865
:1051900089A99899887AAA9878978798899778980A
:1051A000797A77589665A6799A7777797799A86802
:1051B0008998A98A998AA9977A9987758989A96707
:1051C000988888788789789697997887AAA6688832
:1051D00086799A67A86A8A99669A7B867AAA878866
:1051E000A8A677668677856799A8978A69A89AA7F7
:1051F0005878A7789A79786968A988969987A78650
:1052000069977A687988689869999997687A989A75
:105210007999A8AB879A8998A69799779B79678996
:1052200097877977A895966779A978A967A7A777C7
:1052300067A9A98A89A79A9A9A899685A88787874C
:10524000897A769A9798769A78997AAA8889994AE3
:10525000868779878A789969988A768788998998DC
:1052600067867998888A779989A7978988797978DC
:10527000797A787477999696A68A888A789A6A86CF
:105280007878886899B898989888997A988887697A
:10529000A69997767875667866878866A97658980D
:1052A000666A99687666738896679689798987961B
:1052B00098997875886966A7A757676866987897F8
:1052C0009988788A98778879799989798798A89937
:1052D000987899787B8988778799886AA98876876A
:1052E0008877A987787987787776689997686877D3
:1052F00087788679A998997989877B99899786870C
:105300009989876887A997896A787888898AA6A8F9
:1053100059788788897B88999978A77A9878889925
:1053200077657979B888949A99988B7787969787D3
:10533000996789899878789988898A7A9997678707
:105340007976675A9897979886989598967A9967F4
:10535000988768787855677798696A8967789779C0
:1053600076756858569997678998699877577667D8
:1053700087798898978989877875999987687859FE
:10538000689898A797AA889888978A99866A78DBF8
:105390006A667796A96B9688A887978977887788B1
:1053A000898A8947B8A96797699789979A7787877C
:1053B00096686A8BA78A788AA88A7A7B87788869B0
:1053C0009B7878998998997996897667A988998937
:1053D00089A8879977768899A988989A6979789819
:1053E00099A786999768878799969A9A6876777821
:1053F0008778A69767977999A6489A7A98987A6A4B
:1054000067989667799A799668A99788998978991B
:1054100098798A8697D966977789AB878979599AD7
:10542000978B6877989B9B98677986898AA89987D4
:1054300078769699898798AA8787887889788689DF
:10544000AA9787788997997978A9677A679A884916
:105450009788688898779979567768676697977775
:105460009895785858A89999768A77688868A8A6F0
:10547000897969876777878978678697787869896E
:10548000787897A667A8798897788987979797B843
:10549000667869978ABC9977A66896788789979A7B
:1054A000888779A697A5969889977999A968779911
:1054B00078A7887A8997A899567A8889A799997739
:1054C0008598876BA779858899786999788969988B
:1054D00088879A779678888A759A979887988A891C
:1054E000989B896769969AA89879A7968888A98AC7
:1054F0008A988996769A89989A5768866799A95959
:1055000077989866866776877779879799A9888844
:1055100068986898896C9768686799799B777A68C2
:1055200086977977A7847699789A678A877986A704
:1055300067867A6AA89787A999787679AA7777682B
:10554000779A784999977587957A796878A876894E
:1055500076986978795997977859889899A87A5957
:105560007685876978567476799797A98977799A35
:1055700059999869A89898867A6997569878896809
:1055800077977658978975869879998688978999B3
:105590006899979888968677978969789A97987A7C
:1055A0009A7997A787677697889897768689887873
:1055B0006A99A878A999A9965686979A88A77996FC
:1055C00085977967A86875A786788997796788B974
:1055D00098779989A88A7698B97978776879776978
:1055E0009788875ABA7474A98797A99988A7778AE0
:1055F000896989AB69A99868A97AAA87799797591F
:105600007589A9686A678686777679968877899694
:105610007A98876888666876AA977889678786A95E
:105620006AA979877A668587998798898779898928
:1056300077787989877A778776589A7A6776698AC8
:1056400099999866A98988798779989878868857EA
:105650006A87978999A6988988A796797787A6A94E
:105660008A7879999775766869768899996998772B
:105670008999866497769878889879A8987789B771
:105680009879795998988887999998797698899985
:1056900069668999695899888979988897988989D4
:1056A0006887876898789678679777788A779999DE
:1056B00066798699A77879989A9979977688999949
:1056C00097789879998779788898987A9989897854
:1056D000B88789878675A9787A878B79976997873C
:1056E0008A98899A767A9498898997887888899906
:1056F000A778888A878799A7799888797778689929
:105700009A9998769A8A86976697987A98988998B7
:10571000A8A99779968787689989A99777688799BB
:10572000AA798979778A698888889997997A9A79FC
:105730009899798AA9789AA869899988A97689997E
:105740009A7978C9888798989888867989786779C6
:105750008886968878786679886969998988798849
:10576000A697999888886A9997978888766788779E
:10577000888A88797798997688989A8998967867A8
:10578000877779CA7979867999A77669988787869C
:105790008767988997979699A7967A98597888995C
:1057A0007967888799799B889878698687877699B9
:1057B0007897867888889666887798888879A97790
:1057C000887898B998679A699886898888A8997816
:1057D0006979A87AA86878798878887AA8887A799F
:1057E00089988989A886998869897A88887978A723
:1057F0008899877A99788788A789987A6A88787942
:1058000088798A8A87678997899889889A8AA989ED
:1058100096A79A9A78A9977AA9A89989A7978A8822
:10582000898A79998989A987889887897A89A8979F
:105830008A8979A6AAA88998A7A668A8778AA99923
:105840008A987A78798A899989979897888977BB8D
:1058500099AA897AA8999A7AAA8A98A8879A99B9C6
:10586000A8A788A8BA99888978878A97BAA8AA9792
:105870007A779A9A889A78999B9A698A88979A7778
:1058800099878988997789A678887987A7A8897858
:105890008897799A6988897A9968879A9988AA886D
:1058A0009B999798A87A85A78A979977899989AAC1
:1058B00098A99A8858A9877979999A9899998988FD
:1058C0007A97796A8A7A88887997779A7988B6AA4E
:1058D0009BA89977A57B888AA8A996AB877A99A96E
:1058E00098AB7787889AA7988869A988A9787A87D2
:1058F000AA87989A989A8A8996587A89A9A8977AAD
:105900007877788A8A9A76A778A688889789A8BAB5
:105910008BAA988A7AAAB96A9AA7AAAAA49B97A9D5
:10592000A99AA9C8A9AA9C889A99989687A6A99A7B
:10593000A7AAAB797AAA7A9798A969BC6A86AAAA13
:105940007979A9B9A96A8998989897799898C7692F
:105950008B8978779898AA7AAB9A8B99899AA99A21
:1059600098B768A8989A9B9768A9A988A9888A8AED
:1059700066AB889898A9A8A77AA89AAB7789A8A9AE
:10598000787879A8998A77878AA989A97A7A97A94C
:10599000AB9AA96887AA8A9A989A8A9A7769A7A9D6
:1059A0009999A6B79AA6A8977A898A8A9BA9996A8B
:1059B00089899987869A8A779ABB8BAA8898BA9A96
:1059C000897998B8A8AB77998898788A987AB8B97D
:1059D000AAA79A79A5B89A6989BA98AA889A99A71C
:1059E0008BA7A7A8A78899968888AA878988A9A934
:1059F000A97AA99998AA9A887AB96A8979879AAA74
:105A0000A77978BA796A7799858768699789795982
:105A1000B9878786957A8879899879A87779A687CA
:105A2000897687877A898A8A889778977988986625
:105A30008988896B57A8A9887AB69B8B78A897AA7A
:105A40007A9788C5896A77A8877989997A689899B1
:105A5000A7777898769A98877A76A768A89778999A
:105A6000888879888899AA77999988977689999961
:105A7000997A697B8878A77A9889698978898999D8
:105A8000689799D6988867A788966989687A897986
:105A90009979897997979697799789898897998835
:105AA000987678786797769898888786899998996C
:105AB00088699798A8A88977987997978999669817
:105AC000989887C7877799889599898A7A789878F6
:105AD000976898977965A989558859995A789A96B7
